:1000000033C0000039C0000037C0000035C0000018
:1000100033C0000031C000002FC000002DC0000020
:100020002BC0000029C0000027C0000025C0000030
:1000300023C0000021C000001FC000001DC0000040
:100040001BC0000019C0000017C0000015C0000050
:1000500013C0000011C000000FC000000DC0000060
:100060000BC0000009C0000011241FBECFEFD8E074
:10007000DEBFCDBF14D021C0C3CF8FEF809364000B
:100080008FB7F8945F9350E85093610050E050931D
:1000900061005F918FBF08952D9A259A0895EDDF35
:1000A000FBDF80E283B92FEF39E698E12150304041
:0E00B0009040E1F700C00000F5CFF894FFCFBC
:00000001FF
